:020000040800F2
:1000000000500020C12C0008512C0008532C00087F
:10001000552C0008572C0008592C0008000000003F
:100020000000000000000000000000009112000825
:100030005B2C000800000000211300086513000875
:10004000092D0008092D0008092D0008092D0008B8
:10005000092D0008092D0008092D0008092D0008A8
:10006000092D0008092D0008092D0008092D000898
:10007000092D0008092D0008092D0008092D000888
:10008000092D0008092D0008092D0008092D000878
:10009000092D0008092D0008092D0008092D000868
:1000A000092D0008092D0008092D0008092D000858
:1000B0005D2C0008092D0008092D0008092D0008F5
:1000C000092D0008092D0008092D0008092D000838
:1000D000092D0008692C0008092D0008092D0008C9
:1000E000092D0008092D0008092D00080000000056
:1000F0000000000000000000000000000000000000
:0C01000000000000000000005FF808F1A3
:1001100010B5054C237833B9044B13B10448AFF341
:1001200000800123237010BD240000200000000087
:100130007C2D000808B5034B1BB103490348AFF3FE
:10014000008008BD00000000280000207C2D000871
:10015000074A08B51368032043F01003136000F04A
:100160001BF8002002F03AFD02F0CCFC002008BD94
:1001700000200240034A044B11681B780B441360B3
:10018000704700BF6821002000000020014B186864
:10019000704700BF68210020074A0002D36800F4BE
:1001A000E06023F4E0631B041B0C43F0BF6343F4E3
:1001B00000330343D360704700ED00E0174B30B5C8
:1001C000DC68C4F30224C4F10703251D042B28BFF7
:1001D0000423062D4FF0010598BF002405FA03F310
:1001E00003F1FF3388BF033C1940A14005FA04F432
:1001F000013C2240002842EA01024FEA0212AFBF4E
:1002000000F16040064B00F00F00D2B2A5BFD2B2A1
:1002100000F561401A5480F8002330BD00ED00E085
:1002200014ED00E00123420900F01F0003FA00F082
:10023000014B43F82200704700E100E090F82130C4
:1002400010B5022B03D004238363012010BD036883
:100250001A6822F00E021A601A6822F001021A606F
:10026000184A93421FD0143293421ED01432934244
:100270001DD0143293421DD0143293421DD014323B
:1002800093420CBF4FF480134FF080730E4A00244A
:100290005360012380F82130436B80F820407BB10C
:1002A0009847204610BD0123F0E71023EEE74FF4F6
:1002B0008073EBE74FF48053E8E74FF48033E5E7D2
:1002C000184610BD08000240000002402DE9F74F1B
:1002D00000221646654BDFF8A4E1DFF8A4C14FF019
:1002E00001080C6808FA06F808EA0404A0457FD162
:1002F0004D68122D00F0AF8000F28880022D00F0D2
:10030000A7807CD8002D00F08E80012D00F09E800B
:100310004FF00F09FF2C93BF824606F18045083D40
:10032000D0F800B092BFB500D0F804B0AD0009FA23
:1003300005F82BEA080802FA05F588BF00F1040A5F
:1003400048EA0505CAF80050D1F804A01AF0805F09
:100350004ED0474D464FAD6926F0030845F00105E4
:10036000BD61BD6908F1804805F00105019508F5FA
:10037000803806F0030B019D4FEA8B0BD8F808502C
:1003800009FA0BF925EA09093A4DA84268D005F5A2
:100390008065A84266D005F58065A84264D005F561
:1003A0008065A8420CBF0325042505FA0BF545EA34
:1003B0000905C8F808501D681AF4803F14BF25438A
:1003C000A5431D605D681AF4003F14BF2543A54393
:1003D0005D609D681AF4801F14BF2543A5439D608E
:1003E000DD681AF4001F14BF2C4325EA0404DC6006
:1003F0000136102E7FF473AF03B0BDE8F08F032DEC
:1004000022D0112D84D1CA68043281E71A4FBD422F
:1004100009D012D8DFF86C904D4504D009F5803929
:100420004D457FF475AF8A68C2B1012A0CBFC0F890
:100430001080C0F8148008226AE77545F3D065453E
:10044000F1D0DFF84490EBE7002261E7CA685FE78C
:10045000CA6808325CE7CA680C3259E7042257E7D9
:100460000025A2E70125A0E702259EE70004014040
:10047000001002400008014000002110000031106F
:100480000000321000001110000022100AB10161BA
:1004900070470904FBE7C3685940C160704700001A
:1004A00003682DE9F341DB07054610D42B689F074D
:1004B0005ED42B68190700F195802B685A0700F16C
:1004C000BF80EA69002A40F02D81002014E0904CA2
:1004D000636803F00C03042B07D0636803F00C037C
:1004E000082B0CD16368DE0309D523689C03DDD596
:1004F0006B68002BDAD1012002B0BDE8F0816B6897
:10050000B3F5803F10D1236843F480332360FFF7B5
:100510003DFE064623689803C8D4FFF737FE801BCC
:100520006428F7D90320E7E79BB9236823F48033D5
:100530002360236823F480232360FFF727FE064609
:1005400023689903B2D5FFF721FE801B6428F7D9F1
:10055000E8E7B3F5A02F236803D143F48023236099
:10056000D1E723F480332360236823F48023CDE78D
:10057000674C636813F00C0F07D0636803F00C033B
:10058000082B10D16368DA030DD423689B0702D5CA
:100590002B69012BAFD123686A6923F0F80343EA82
:1005A000C203236085E72A695A4B6AB101221A60A7
:1005B000FFF7ECFD064623689F07ECD4FFF7E6FD46
:1005C000801B0228F7D9ADE71A60FFF7DFFD06466A
:1005D000236898077FF56DAFFFF7D8FD801B0228D1
:1005E000F6D99FE7AA694A4C4B4BDAB101221A604F
:1005F000FFF7CCFD0646636A9B070DD54FF4FA5210
:10060000464B1B68B3FBF2F3019300BF019B5A1EDC
:100610000192002BF9D150E7FFF7B8FD801B0228AB
:10062000E9D97FE71A60FFF7B1FD0646636A9F07C5
:100630007FF543AFFFF7AAFD801B0228F6D971E7CB
:10064000334CE369D80024D40127E36943F0805395
:10065000E361E36903F080530093009B304E3368FD
:10066000D90518D5EB68012B26D1236A43F0010385
:100670002362FFF78BFD41F288368046236A9B0791
:100680003FD5002F3FF41DAFE36923F08053E361B2
:1006900017E70027E2E7336843F480733360FFF71E
:1006A00075FD80463368DA05DCD4FFF76FFDA0EBFB
:1006B00008006428F6D935E7ABB9236A41F28838D7
:1006C00023F001032362236A23F004032362FFF76C
:1006D0005DFD0646236A9807D3D5FFF757FD801BBB
:1006E0004045F7D91EE7052B236A03D143F00403E5
:1006F0002362BAE723F001032362236A23F0040391
:10070000B6E7FFF743FDA0EB0800B042B6D909E712
:1007100000100240000042428004424220000020BB
:1007200000700040224C636803F00C03082B3FF478
:10073000E2AE00231F4E022A33602BD1FFF726FDC5
:100740000746236899011FD42B6AB3F5803F05D172
:100750006268A96822F400320A436260696A6268CA
:100760000B4322F474121343636001233360FFF7D9
:100770000DFD054623689A013FF5A7AEFFF706FD7C
:10078000401B0228F6D9CDE6FFF700FDC01B02286A
:10079000D7D9C7E6FFF7FAFC054623689B017FF52A
:1007A00094AEFFF7F3FC401B0228F6D9BAE600BF6F
:1007B000001002406000424230B5194B87B002ACD5
:1007C00003F11005224618685968083303C2AB428A
:1007D0001446F7D101238DF80430022311498DF816
:1007E00005304B6803F00C02082A17D1C3F383428B
:1007F00006A80244DB0312F8102C0CD54B680A48FB
:10080000C3F34043504306AA134413F8143CB0FB0F
:10081000F3F007B030BD05485043FAE70248F8E767
:10082000942D00080010024000127A0000093D00DB
:10083000544A2DE9F0411368054603F007038B4243
:100840000E462AD329688C0734D4CA0747D44D4AA8
:10085000136803F007039E42C0F082802A684A4C66
:1008600012F0040F40F08780130706D563682A69E9
:1008700023F4605343EAC2036360FFF79DFF63689C
:10088000424AC3F30313D35CD840414B18600020A5
:1008900002F0A4F90020BDE8F081136823F00703FB
:1008A0000B431360136803F007039942CAD0012079
:1008B000BDE8F081344B11F0040F1EBF5A6842F4BA
:1008C000E0625A60080742BF5A6842F460525A60B8
:1008D0005A68A86822F0F00202435A60B5E76A68D5
:1008E000294C012A23681CD113F4003FDFD0636830
:1008F00041F2883823F0030313436360FFF746FC9B
:100900006B680746012B14D1636803F00C03042BBA
:100910009DD0FFF73BFCC01B4045F5D90320BDE847
:10092000F081022A02D113F0007FDFE713F0020FFB
:10093000DCE7022B0FD1636803F00C03082B86D091
:10094000FFF724FCC01B4045F5D9E7E7FFF71EFC85
:10095000C01B4045E2D8636813F00C0FF6D176E770
:10096000136823F0070333431360136803F007038E
:100970009E429CD172E76368E96823F4E0630B430D
:10098000636071E70020024000100240EA2D000879
:1009900020000020044B054A5B68C3F30223D35CAC
:1009A000034A1068D840704700100240FA2D000832
:1009B00020000020044B054A5B68C3F3C223D35CCC
:1009C000034A1068D840704700100240FA2D000812
:1009D000200000200F2303600B4B5A6802F0030233
:1009E00042605A6802F0F00282605A6802F4E062E3
:1009F000C2605B68DB0803F4E0630361034B1B68C0
:100A000003F007030B607047001002400020024013
:100A1000704703680020DA6842F00102DA601A6861
:100A200042F001021A607047704770477047704784
:100A3000036810B51A69044691070ED5DA68920763
:100A40000BD56FF002021A6101229B6902779B07A6
:100A500077D0FFF7EAFF0023237723681A6950074E
:100A600010D5DA6851070DD56FF004021A61022221
:100A70009B69227713F4407F204668D0FFF7D5FFAB
:100A80000023237723681A6912070FD5DA68100745
:100A90000CD56FF008021A610422DB6922779907EE
:100AA00020465AD0FFF7C1FF0023237723681A6935
:100AB000D20610D5DA68D0060DD56FF010021A6193
:100AC0000822DB69227713F4407F20464BD0FFF7E2
:100AD000ACFF0023237723681A69D10708D5DA68A9
:100AE000D20705D56FF0010220461A6102F002F824
:100AF00023681A69100608D5DA68110605D56FF063
:100B0000800220461A6100F088F823681A695206AC
:100B100008D5DA68500605D56FF0400220461A6104
:100B2000FFF785FF23681A69910622D5DA689206D5
:100B30001FD56FF020022046BDE810401A6100F07A
:100B40006BB8FFF771FF2046FFF770FF83E7FFF7F1
:100B50006BFF2046FFF76AFF92E7FFF765FF20462D
:100B6000FFF764FFA0E7FFF75FFF2046FFF75EFF98
:100B7000AFE710BD1A4A036890420AD0B0F1804F27
:100B800007D0A2F59432904203D002F580629042E1
:100B900015D14A6823F070031343114A90420AD0DA
:100BA000B0F1804F07D0A2F59432904203D002F505
:100BB0008062904203D1CA6823F4407313434A69A8
:100BC00023F08003134303608B68C3620B68836266
:100BD000034B984204BF0B690363012343617047D1
:100BE000002C014010B50446A0B190F83D3003F050
:100BF000FF021BB980F83C20FFF70AFF02232068A0
:100C000084F83D30211DFFF7B5FF0123002084F853
:100C10003D3010BD012010BD704770470368DA6891
:100C200022F49072DA605A6922F001025A6120239C
:100C300080F83A30704700002DE9F0470568C26837
:100C40002B69016923F4405313432B618368EA68DD
:100C50000B43416922F4B05222F00C020B431343C0
:100C6000EB606B69826923F4407313436B61404B03
:100C700081469D424FF0190446D1FFF79BFE04FBCD
:100C800000F3D9F804604FF06408B600B3FBF6F344
:100C9000B3FBF8F31E01FFF78DFE6043D9F8043073
:100CA0009B00B0FBF3F7FFF785FE6043D9F80430F3
:100CB0009B00B0FBF3F3B3FBF8F308FB13731B01CA
:100CC0003233B3FBF8F303F0F007FFF773FE604332
:100CD000D9F804209200B0FBF2FAFFF76BFE6043F4
:100CE000D9F804309B00B0FBF3F3B3FBF8F308FB37
:100CF00013A31B013233B3FBF8F303F00F033B43A1
:100D00003344AB60BDE8F087FFF744FE04FB00F31B
:100D1000D9F804604FF06408B600B3FBF6F3B3FBF8
:100D2000F8F31E01FFF736FE6043D9F804309B004C
:100D3000B0FBF3F7FFF72EFE6043D9F804309B00B9
:100D4000B0FBF3F3B3FBF8F308FB13731B0132336F
:100D5000B3FBF8F303F0F007FFF71CFE6043D9F88C
:100D600004209200B0FBF2FAFFF714FEB7E700BFD1
:100D700000380140F8B504460E4617461D46216866
:100D80000B6836EA030301D10020F8BD6B1CF7D0D5
:100D900095B923680320DA6822F4D072DA605A69C0
:100DA00022F001025A61202384F8393084F83A3065
:100DB000002384F83830F8BDFFF7E8F9C01B8542FE
:100DC000DDD2E6E710B5044640B390F8393003F0C1
:100DD000FF021BB980F8382001F0BCFE24232268F2
:100DE00084F83930D368204623F40053D360FFF7EA
:100DF00023FF236800201A6922F490421A615A697D
:100E000022F02A025A61DA6842F40052DA602023A2
:100E1000E06384F8393084F83A3010BD012010BD09
:100E20002DE9F0411F4690F839300446202B0D463D
:100E300090464ED1002949D0002A47D090F838304A
:100E4000012B46D0012380F838300023C3632123CF
:100E500080F83930FFF79AF90646A4F82480A4F800
:100E60002680E38C9BB26BB93B463246402120463C
:100E7000FFF780FFA8B9202384F8380084F83930C0
:100E8000BDE8F081E38C3246013B9BB2E384A3686A
:100E90008021B3F5805F20463B460ED1FFF76AFF05
:100EA00010B10320BDE8F0812B882268C3F308034A
:100EB0005360236943B90235D3E7FFF75BFF00288E
:100EC000EFD123682A785A600135CAE70120BDE8CE
:100ED000F0810220BDE8F08190F83930202B18D144
:100EE000A9B1A2B190F83830012B12D0C28482840B
:100EF0000023212201620168C36380F83920CA6897
:100F000080F8383042F08002CA60184670470120ED
:100F1000704702207047704790F83A3010B5222B86
:100F200036D183680169B3F5805F0268836A23D193
:100F30005268E9B9C2F3080223F8022B8362C48D18
:100F4000013CA4B2C4858CB90368DA6822F020029F
:100F5000DA60DA6822F48072DA605A6922F00102FB
:100F60005A61202380F83A3001F0BAFD002010BD0C
:100F7000D2B223F8012BE1E721B9591C52688162F2
:100F80001A70DCE75268591C816202F07F02F7E7B1
:100F9000022010BD70470000036870B51A6804464F
:100FA0001607D9685D6907D196065AD58D0658D5BA
:100FB000BDE87040FFF7B0BF15F0010502D111F494
:100FC000907F4ED0D30705D5CE0542BFE36B43F0EB
:100FD0000103E363500704D51DB1E36B43F0020343
:100FE000E363930704D51DB1E36B43F00403E363AC
:100FF000160704D51DB1E36B43F00803E363E36B0D
:10100000002B66D0950604D5880602D52046FFF74A
:1010100083FF236820465D69E26B110702D415F057
:1010200040051AD0FFF7FAFD23685A69520610D519
:101030005A69606B22F040025A6150B1254B4363FC
:10104000FFF7FCF8002844D0606BBDE87040436BAC
:1010500018472046FFF79EFF70BDFFF79BFFE56333
:1010600070BD160627D50D0625D594F83920212AFE
:101070002FD1A268B2F5805F226A17D11188C1F31F
:1010800008015960216979B902322262E28C013A81
:1010900092B2E284EAB9DA6822F08002DA60DA68B1
:1010A00042F04002DA6070BD0132EEE7511C21626D
:1010B00012785A60EAE750060BD54A0609D5DA6875
:1010C000204622F04002DA60202384F83930FFF70E
:1010D00022FF70BDD910000808B50023406AC385FF
:1010E000C384FFF757FF08BD08B500F0EDFE0020F0
:1010F00008BD30B5B0F9084085B0842C08BF002485
:10110000028A18BF03340B4690E8220003A801901E
:101110000094284600F008FE012814BF0020039820
:1011200005B030BD07B503680139009313464A4244
:101130004A410348012101F083FA03B05DF804FB42
:10114000E92D00081FB500240394A14214BF0A46EC
:101150000122EFF30583A3B1009403AB092101F051
:1011600093FA012813D1039B13B9002004B010BDDA
:101170004FF08052074B1A60BFF34F8FBFF36F8F52
:10118000F3E70093042101F07FFA0128EDD0FF205E
:10119000ECE700BF04ED00E000F1080343604FF00E
:1011A000FF32C36003610023826003607047002345
:1011B0000361704743689A684B608A609A6851601F
:1011C0009960036808610133036070470A6830B5AD
:1011D000531C0AD103695A684A6091608B60596058
:1011E000036808610133036030BD00F108035C68E7
:1011F0002568AA42EFD32346F9E74168826803696C
:101200008A60826851605968884208BF5A6000222B
:101210000261186801381860704700000A4B1B68AB
:10122000013308D04FF0500383F31188BFF36F8F61
:10123000BFF34F8FFEE74FF0500383F31188BFF3E6
:101240006F8FBFF34F8FFEE7040000200648006851
:10125000006880F3088862B661B6BFF34F8FBFF3B2
:101260006F8F00DF00BF000008ED00E04FF08073DB
:1012700040F8043C054B21F0010140F8081C40F8FF
:101280000C3C40F8202C4038704700BF1D1200086D
:10129000074B19680868B0E8F00F80F30988BFF3BE
:1012A0006F8F4FF0000080F311884EF00D0E7047E5
:1012B000002000204FF0500383F31188BFF36F8F9D
:1012C000BFF34F8F0A4A13680133012B13600DD10E
:1012D000084B1B6813F0FF0F08D04FF0500383F347
:1012E0001188BFF36F8FBFF34F8FFEE7704700BFCA
:1012F0000400002004ED00E0084A136843B94FF0F1
:10130000500383F31188BFF36F8FBFF34F8FFEE756
:10131000013B13600BB983F3118870470400002070
:10132000EFF30980BFF36F8F0D4B1A6820E9F00FC0
:1013300010602DE908404FF0500080F3118800F054
:1013400055FF4FF0000080F31188BDE80840196890
:101350000868B0E8F00F80F30988BFF36F8F70471B
:101360000020002008B54FF0500383F31188BFF32D
:101370006F8FBFF34F8F00F0F5FD18B14FF0805223
:10138000024B1A60002383F3118808BD04ED00E0CE
:101390004FF47A72054B1B68B3FBF2F3044A013B2E
:1013A00013600722034B1A60704700BF2000002023
:1013B00014E000E010E000E013B51F4B00211A78A4
:1013C000D2B20192FF221A701B781C4ADBB28DF850
:1013D00003309DF8033003F0500313700722184BBD
:1013E0001A609DF80300541E00061CD401B11A6057
:1013F0001A68120202F4E0621A60019B0E4ADBB224
:101400001370104B1A6842F470021A601A6842F0A6
:1014100070421A60FFF7BCFF00220B4B1A60FFF707
:1014200015FFFFF7FBFE9DF8032001215200D2B209
:101430008DF803202246D4E700E400E040000020BD
:101440004400002020ED00E004000020EFF30583BD
:101450000F2B0ED9104A9B5C104A12789A4208D979
:101460004FF0500383F31188BFF36F8FBFF34F8F9B
:10147000FEE70B4B0B4A1B68126803F4E0639342D0
:1014800008D94FF0500383F31188BFF36F8FBFF378
:101490004F8FFEE7704700BFF0E300E04000002000
:1014A0000CED00E04400002010B50F4B1A6882429A
:1014B00018D35C681919884201BF41681846091998
:1014C0005960446801198A4207D1084909688A426B
:1014D0001FBF51681268091941609842026018BF25
:1014E000186010BD1346E1E7F81F002048000020F7
:1014F0002DE9F041044600F027FD3E493E4D0B68C2
:101500000BBB3E4A56071DBFD01D20F0070002F559
:10151000FD534FF4FD531CBF02461B1A0020134419
:10152000374E083B23F00703706032605860186044
:101530000B60981A1360334B50601860324B186080
:101540004FF000432B602F68274216D1002C40D06B
:1015500004F1080358071CBF23F00703083363B1E5
:10156000294A16689046B34207D8254A1568686824
:10157000834204D809688D4207D1002429E02C68F1
:10158000002CF7D02A462546F1E729681468116037
:10159000C21A102A0FD9E818410708D04FF050039B
:1015A00083F31188BFF36F8FBFF34F8FFEE7426065
:1015B0006B60FFF779FF6B681249F61A1F4300232F
:1015C0000868C8F80060864238BF0E6008346F6053
:1015D0002B6000F059FD630708D04FF0500383F3F0
:1015E0001188BFF36F8FBFF34F8FFEE72046BDE832
:1015F000F08100BF48000020EC1F00204C000020BC
:10160000F81F0020F41F0020F01F002010B5044632
:1016100070B3184A50F8043C1268134208D14FF0D6
:10162000500383F31188BFF36F8FBFF34F8FFEE733
:1016300050F8081C41B14FF0500383F31188BFF3F9
:101640006F8FBFF34F8FFEE723EA020340F8043C9D
:1016500000F07AFC084A54F8043C1168A4F1080030
:101660000B441360FFF720FFBDE8104000F00CBDF5
:1016700010BD00BFEC1F0020F01F002070B5154604
:10168000026C0446866B42B905689DB9406800F05B
:101690000BFF65600136A66370BD6DB9806801F00F
:1016A00059FBA368226C13446268A360934201D380
:1016B0002368A3600020EDE7C06801F04BFB236CBA
:1016C000E2685B4221681A448A42E2603EBF626877
:1016D0009B18E360022DEDD10EB1013EEAE73046E2
:1016E000D8E703461A6C10B4084662B1D9685C6842
:1016F0001144A142D96028BF196810BC28BFD96025
:10170000D96801F027BB10BC704770B50446FFF7DD
:10171000D1FD94F8455004F124066DB2002D14DC7F
:10172000FF2384F84530FFF7E7FDFFF7C3FD94F88A
:10173000445004F110066DB2002D12DCFF2384F832
:101740004430BDE87040FFF7D7BD636A002BE7D097
:10175000304600F0BFFD08B100F048FE013D6DB21B
:10176000DCE72369002BE9D0304600F0B3FD08B177
:1017700000F03CFE013D6DB2DEE7000038B50D46DD
:10178000044640B94FF0500383F31188BFF36F8FC5
:10179000BFF34F8FFEE7FFF78DFD206CE36B2268F0
:1017A0004343D1181B1A13446160E3600021FF23F7
:1017B000A163A26084F8443084F8453095B9236968
:1017C00063B104F1100000F085FD38B14FF0805294
:1017D000094B1A60BFF34F8FBFF36F8FFFF78CFD7C
:1017E000012038BD04F11000FFF7D6FC04F12400FD
:1017F000FFF7D2FCF2E700BF04ED00E070B50D4644
:10180000064640B94FF0500383F31188BFF36F8F42
:10181000BFF34F8FFEE748434830FFF769FE0446A9
:1018200038B145B92060E663256401212046FFF701
:10183000A5FF204670BD00F148030360F3E70000F8
:101840002DE9FF47894601921F46044640B94FF0F3
:10185000500383F31188BFF36F8FBFF34F8FFEE701
:10186000002940F08880036C002B00F084804FF04A
:10187000500383F31188BFF36F8FBFF34F8FFEE7E1
:10188000019E002E00F082804FF0500383F31188F8
:10189000BFF36F8FBFF34F8FFEE7019D1DB9FFF7B9
:1018A0002BFD002058E016B902A800F055FDFFF707
:1018B00023FD00F049FBFFF7FDFC94F84430FF2BBB
:1018C00008BF84F8448094F84530FF2B08BF84F8A3
:1018D0004580FFF711FD01A902A800F04DFD002889
:1018E00043D1FFF7E7FCA66BE56BFFF705FDAE42C2
:1018F00035D1019904F1100000F0B2FC2046FFF749
:1019000004FF00F0C1FB38B94FF08053CAF8003033
:10191000BFF34F8FBFF36F8F0126FFF7CBFCA26B96
:10192000E36B9A4201D3022FB7D13A46494620468B
:10193000FFF7A4FE636A1BB104F1240000F0CAFCA7
:1019400038B14FF08052184B1A60BFF34F8FBFF37E
:101950006F8FFFF7D1FC012004B0BDE8F08720466F
:10196000FFF7D3FE00F090FBD6E72046FFF7CDFE51
:1019700000F08AFB95E7022F02D1E36B012B0AD11D
:1019800000F03AFD00283FF47BAF00264FF000083E
:10199000DFF814A0C1E74FF0500383F31188BFF3C1
:1019A0006F8FBFF34F8FFEE704ED00E02DE9F843A2
:1019B000884691461F46044640B94FF0500383F3D2
:1019C0001188BFF36F8FBFF34F8FFEE709BB036C26
:1019D000FBB14FF0500383F31188BFF36F8FBFF358
:1019E0004F8FFEE704F1240000F074FC002834D08F
:1019F000B9F1000F31D00120C9F8000086F3118839
:101A0000BDE8F88301356DB284F8455025E000202B
:101A1000F4E7022F02D1E36B012B20D1FFF716FD73
:101A2000EFF311864FF0500383F31188BFF36F8FEC
:101A3000BFF34F8FA26BE36B9A4201D3022FE6D123
:101A400094F845503A466DB241462046FFF716FEDF
:101A50006B1CD7D1636A002BC4D10120CEE74FF0B5
:101A6000500383F31188BFF36F8FBFF34F8FFEE7EF
:101A70002DE9FF47884601929946044640B94FF048
:101A8000500383F31188BFF36F8FBFF34F8FFEE7CF
:101A9000002940F0A580036C002B00F0A1804FF0DE
:101AA000500383F31188BFF36F8FBFF34F8FFEE7AF
:101AB000019E002E00F09A804FF0500383F31188AE
:101AC000BFF36F8FBFF34F8FFEE7636AE660002BB3
:101AD0006DD004F124005FE0019D1DB9FFF70CFCFF
:101AE000284667E016B902A800F036FCFFF704FCB0
:101AF00000F02AFAFFF7DEFB94F84430FF2B08BF12
:101B000084F8447094F84530FF2B08BF84F8457082
:101B1000FFF7F2FB01A902A800F02EFC002852D129
:101B2000FFF7C8FBA56BFFF7E7FB002D45D1236846
:101B300033B9FFF7BFFB606800F06EFCFFF7DCFB1A
:101B4000019904F1240000F08BFB2046FFF7DDFD36
:101B500000F09AFA38B94FF08053CAF80030BFF35A
:101B60004F8FBFF36F8F0126FFF7A4FBA56B002DEE
:101B7000B2D041462046E668FFF7B3FDB9F1000F49
:101B8000A3D12368013DA56313B900F0DDFC6060BB
:101B9000236963B104F1100000F09CFB38B14FF0F1
:101BA0008052144B1A60BFF34F8FBFF36F8FFFF754
:101BB000A3FB012004B0BDE8F0872046FFF7A5FD98
:101BC00000F062FACFE72046FFF79FFD00F05CFAD5
:101BD000FFF770FBA56BFFF78FFB002DC3D17FE7ED
:101BE00000F00AFC00283FF463AF00260027DFF86E
:101BF00004A0B9E704ED00E0002330B5064A52F82E
:101C0000335002EBC3041DB942F83310606030BD9D
:101C10000133082BF3D130BD6C21002070B5044690
:101C20000D461646FFF746FB94F84430FF2B04BFE1
:101C3000002384F8443094F84530FF2B04BF002380
:101C400084F84530FFF758FBA36B2BB93246294681
:101C500004F1240000F01EFB2046BDE87040FFF7B1
:101C600054BD0000064A13681968064B19B94FF0B5
:101C7000FF321A6070471268D268D2685268F8E77B
:101C800004200020DC200020F8B51B4B1B4E1D68F3
:101C9000044630680F460430FFF7AFFA334640B9C8
:101CA00001203168164EC96A3268884022EA000273
:101CB0003260621C07D137B1196812480431BDE89F
:101CC000F840FFF777BA2C441A68A542546007D948
:101CD0000D4A10681968BDE8F8400431FFF776BA7C
:101CE0000A4A106819680431FFF770FA084B1A683D
:101CF000944238BF1C60F8BD242100200020002041
:101D0000AC200020FC20002008200020042000201F
:101D1000DC2000204FF0500383F31188BFF36F8F56
:101D2000BFF34F8FFEE700002DE9F84F4FEA820A1C
:101D3000804650460F4699460B9EFFF7D9FB054655
:101D4000002800F096805420FFF7D2FB04460028BC
:101D500000F08C80AAF1040A056355447B1E25F02F
:101D6000070A00F134020F37597802F8011B13F803
:101D7000011F09B1BB42F7D10A9D4FF0000B062DA0
:101D800028BF0625271DE5626564384684F843B000
:101D9000C4F848B0FFF70BFAC5F1070504F11800C5
:101DA000FFF705FAC4F84CB02461A561646284F8B9
:101DB00050B04A4641465046FFF758FA206006B1F7
:101DC0003460FFF777FA324B324E1A68DFF8F08052
:101DD00001321A603568002D4ED134601B68012B2A
:101DE0001DD108EB05001435FFF7D6F98C2DF8D17D
:101DF000DFF8D090284D4846FFF7CEF92846FFF788
:101E0000CBF92648FFF7C8F92548FFF7C5F925485B
:101E1000FFF7C2F9244BC3F80090244B1D60012545
:101E2000234A24491368086801331360E26A05FAFB
:101E300002F3034314200B6000FB02803946FFF7D6
:101E4000B9F9FFF759FA1C4B1B6863B13368DA6ABA
:101E5000E36A9A4207D24FF08052184B1A60BFF3E0
:101E60004F8FBFF36F8F2846BDE8F88F2846FFF7E6
:101E7000CDFB4FF0FF35F6E70F4B1B68002BCED1A3
:101E80003368DA6AE36A9A4298BF3460C7E700BFF2
:101E90009820002000200020C4200020E420002002
:101EA00010210020FC200020042000200820002019
:101EB000A8200020AC200020F820002004ED00E045
:101EC0000C200020B020002013B50024184B0094F3
:101ED00001938022234617491748FFF725FF012861
:101EE00018D100F087FB012814D14FF0500383F381
:101EF0001188BFF36F8FBFF34F8F4FF0FF320F4B3F
:101F00001A600F4B18600F4B1C6002B0BDE8104008
:101F1000FFF752BA013008D14FF0500383F3118814
:101F2000BFF36F8FBFF34F8FFEE702B010BD00BF4E
:101F3000D8200020CC2D000879210008DC200020CA
:101F4000F820002024210020024A13680133136086
:101F5000704700BFA4200020014B1868704700BFE5
:101F6000242100202DE9F84F3C4B1B68002B53D156
:101F70003B4B1C6801341C60BCB93A4B1A681268B0
:101F800042B14FF0500383F31188BFF36F8FBFF35B
:101F90004F8FFEE7344A1968106818601160334AA1
:101FA000136801331360FFF75DFE314D4FF0000BF6
:101FB0002B68304F9C423ED3DFF8A880DFF8C490F6
:101FC000D8F80020126872BB4FF0FF322A6032E06E
:101FD00006F1040A5046FFF710F9B16A19B106F18B
:101FE0001800FFF70AF901224FF0140EF06AD9F831
:101FF000003002FA00F119431F4BC9F800100EFB24
:1020000000305146FFF7D6F83868F16AC26A91424B
:1020100028BF4FF0010BD3E7184A4FF0000B1368AD
:102020000133136011E0D8F80020D268D6687168D7
:102030008C42CDD229603A680F4BD16A14224A43B0
:102040009A58022A28BF4FF0010B0D4A1268002A45
:1020500018BF4FF0010B5846BDE8F88FA4200020B0
:10206000242100200420002008200020E02000205F
:10207000DC200020002000200C200020A0200020D8
:1020800028210020AC2000202DE9F843314C2368A2
:1020900043B94FF0500383F31188BFF36F8FBFF341
:1020A0004F8FFEE7FFF706F92368013B23602468A2
:1020B0002CB10024FFF720F92046BDE8F883264B19
:1020C0001B68002BF5D0DFF8A890244FDFF8A48020
:1020D000D9F80030E3B90CB1FFF7C4FD204D2C68EE
:1020E00044B101271F4EFFF73DFF00B13760013CAF
:1020F000F9D12C601B4B1B68002BDAD04FF08052BB
:10210000194B1A60BFF34F8FBFF36F8F0124D1E7D4
:10211000D9F80C300125DC68261D04F11800FFF702
:102120006CF83046FFF769F81420E26A396805FA5E
:1021300002F30B4300FB028031463B60FFF73AF8A5
:102140000A4BE26A1B68DB6A9A4224BF054B1D609A
:10215000BEE700BFA420002098200020AC20002073
:10216000A02000202821002004ED00E00020002015
:10217000E42000200C20002008B5174E174C2368DF
:1021800063B9174B1B68012BF8D94FF08052154BE0
:102190001A60BFF34F8FBFF36F8FEFE7FFF7D4FEE7
:1021A0003568FFF771FF002DE9D0FFF783F8F3687A
:1021B000DD68281DFFF721F80B4A1368013B136007
:1021C0002368013B2360FFF797F8286BFFF71EFA9F
:1021D0002846FFF71BFAD2E7102100209C200020A0
:1021E0000C20002004ED00E098200020174B10B5D3
:1021F0001A68174B12B101221A6010BD1A60154BF4
:102200001B68B3FA83F31422DBB2C3F11F035A43F2
:1022100011498C58881844B94FF0500383F3118842
:10222000BFF36F8FBFF34F8FFEE7446808326468D7
:102230000A44944208BF6268446008BF42601422A6
:1022400002FB03135B68DA68044BD5E7A420002087
:1022500028210020AC2000200C200020002000209D
:1022600010B50C4640B94FF0500383F31188BFF30B
:102270006F8FBFF34F8FFEE7054B19681831FEF7DC
:10228000A5FF2046BDE810400121FFF7FDBC00BFBF
:102290000020002038B50D46144640B94FF05003D9
:1022A00083F31188BFF36F8FBFF34F8FFEE7084BA7
:1022B00019681831FEF77EFF002C214608BF28461A
:1022C000BDE8384018BF4FF0FF30FFF7DDBC00BF5E
:1022D0000020002038B5C368DC6844B94FF05003D3
:1022E00083F31188BFF36F8FBFF34F8FFEE704F1C5
:1022F00018052846FEF781FF114B1B68E3B9251D21
:102300002846FEF77AFF01230E49E26A08689340E7
:10231000034314200B6029460B4B00FB0230FEF7F1
:1023200049FF0A4BE26A1B68DB6A9A4285BF0120BB
:10233000074B0020186038BD29460648EFE700BF6C
:10234000A4200020AC2000200C2000200020002031
:1023500028210020E420002008B508B9FFF7DAFCA6
:10236000034B1B680360034B1B68436008BD00BF41
:10237000E02000202421002038B50D46044640B955
:102380004FF0500383F31188BFF36F8FBFF34F8F6C
:10239000FEE741B94FF0500383F31188BFF36F8F0D
:1023A000BFF34F8FFEE7FEF785FF0E4B19682B68D2
:1023B0005A1C10D00C4A206812689042626801D002
:1023C00091420DD2881A83420AD95B1A13442B60BA
:1023D0002046FFF7C1FF0024FEF78EFF204638BDE0
:1023E0000124F9E724210020E02000200122014BF4
:1023F0001A60704728210020054B1B6833B1054B3C
:102400001B68002B0CBF0220002070470120704782
:10241000F8200020A42000202DE9F04104460028E7
:1024200039D01E4DC36A2A68D26A934233D2142728
:1024300082691B4E002AA8BF2A6807FB0363A2BF5C
:10244000D26AC2F10702826142699A4220D100F148
:1024500004084046FEF7D1FE124A48B9E06A4743F5
:10246000F3592BB901211368814023EA010313605A
:102470002B681168D86A012383400B43136014232F
:10248000E062414603FB0060BDE8F041FEF792BE0A
:102490002B68DB6AC362BDE8F08100BF002000202A
:1024A0000C200020AC200020F8B5044608B900201C
:1024B000F8BD224B1B68984208D04FF0500383F3BD
:1024C0001188BFF36F8FBFF34F8FFEE7836C43B963
:1024D0004FF0500383F31188BFF36F8FBFF34F8F1B
:1024E000FEE7C16A426C013B91428364DFD0002B5E
:1024F000DDD1051D2846FEF780FE114E114A50B968
:102500001421E76A794373582BB901201368B84046
:1025100023EA00031360636CC3F10701E362A16166
:102520000124116804FA03F00843106014202946BE
:1025300000FB0360FEF73EFE2046F8BD00200020B1
:102540000C200020AC200020044B1A681AB1196836
:102550008A6C01328A641868704700BF002000202E
:10256000F8B50F4CFEF7A6FE2568ADB90D4F0E4E1F
:102570003846FEF711FE3046FEF70EFE0B4B2A469C
:102580001F600B4B0C210A201E60FFF737F92060FB
:1025900010B10849FFF730FBBDE8F840FEF7ACBECC
:1025A0006021002034210020482100202C2100201F
:1025B00030210020D12D0008914208B54160006112
:1025C0000AD8D21A83699A420DD2084B011D1868A5
:1025D000FEF7FCFD002008BD9A4201D2994202D2CA
:1025E000011D034BF3E7012008BD00BF302100208F
:1025F0002C21002007B5FFF7B3FF0D4B1B685BB123
:102600000C4B4FF48072019303230B4900930B484A
:102610000023FFF789FB40B94FF0500383F3118883
:10262000BFF36F8FBFF34F8FFEE703B05DF804FB7E
:102630006021002064210020D62D00085D270008BD
:102640002DE9F041804628200D4617461E46FEF72C
:102650004FFF0446A8B145B94FF0500383F31188EA
:10266000BFF36F8FBFF34F8FFEE7FFF779FF069B36
:10267000C4F80080A561E76126626362201DFEF751
:1026800096FD2046BDE8F08130B5154685B01A4666
:10269000034640B94FF0500383F31188BFF36F8FA7
:1026A000BFF34F8FFEE70D4C206878B105290191EB
:1026B000029503930CDCFFF79FFE002302280CBF5A
:1026C000089A1A4601A92068FFF7BAF805B030BD8C
:1026D000002301A9FFF76AF9F8E700BF6021002095
:1026E0002DE9F3414FF000081A4D2B681A6832B9F2
:1026F000194A11681360296002B0BDE8F081DB68F7
:10270000DC681E68271D3846FEF777FD636A2046A1
:102710009847E369012BE8D1A36933449E4206D26E
:102720006360246139462868FEF750FDDDE7002329
:10273000CDF80080324619462046FFF7A5FF002855
:10274000D3D14FF0500383F31188BFF36F8FBFF3E2
:102750004F8FFEE72C210020302100202DE9F04F83
:102760006C4DDFF8C0812F4689B02B68D3F800B0DC
:10277000BBF1000F42D0DB68D3F80090FFF7E4FB19
:10278000FFF7EAFB644B82461A681E46904237D236
:1027900001240393FFF7A4FF039BC3F800A0002CC0
:1027A0007ED1BBF1000F60D0D14577D8FFF76CFC2C
:1027B0003B68DB68D3F80CB00BF10400FEF71DFD9D
:1027C000DBF81C30012B1DD1DBF818104B465246AC
:1027D00049445846FFF7F0FEA0B1009423464A460C
:1027E00021465846FFF750FF60B94FF0500383F37E
:1027F0001188BFF36F8FBFF34F8FFEE7D946BDE758
:102800000024CAE7DBF8243058469847DFF81091D7
:10281000002305A91A46D9F80000FFF729F9002876
:10282000A3D0059B002BF3DB079C636913B1201D2C
:10283000FEF7E3FCFFF790FB33688346984201D232
:10284000FFF74EFF059AC6F800B0092AE0D8012329
:10285000934013F4047A4AD113F0C70F23D19B0697
:10286000D6D52046FEF7D2FED2E72C4B1B681A685D
:10287000B2FA82F252092A4BA9EB0A011868FFF753
:10288000CDF9FFF701FC0028C0D14FF08053C8F804
:102890000030BFF34F8FBFF36F8FB7E72246EAE7F1
:1028A000FFF7F2FBB2E7A169069B5A46194420469E
:1028B000FFF782FE0028ABD0636A20469847E369A1
:1028C000012BA5D1A2690699CDF800A00A44534670
:1028D00051462046FFF7D8FE002899D14FF050030B
:1028E00083F31188BFF36F8FBFF34F8FFEE7069915
:1028F000A16141B94FF0500383F31188BFF36F8F8B
:10290000BFF34F8FFEE75B465A4659442046FFF718
:1029100053FE7DE72C2100205C2100203021002087
:102920006021002004ED00E00122014B1A60704795
:102930001C00002008B5044D044C0A23122229462D
:102940002046FEF76DFAF8E708000020B0210020CD
:102950000D4C08B526460D4D2368012BFDD10023F3
:1029600028464FF400513360FDF795FD084B4FF4B6
:102970007A711868FEF7E6FB0A2312220549064819
:10298000FEF74EFAE8E700BF1C00002000100140EF
:10299000F021002008000020B021002000B591B0F7
:1029A0002822002106A800F0E0F91422002101A845
:1029B00000F0DBF90223069301230A93102306A8F3
:1029C0000B93FDF76DFD00210F2301A801930291E8
:1029D000039104910591FDF72BFF11B05DF804FB05
:1029E00000B58FB0FDF7B4FBFFF7D8FF1022002130
:1029F00009A800F0BAF9314B4FF400519A693048F8
:102A000042F010029A619A69002502F010020192C8
:102A1000019A9A69012442F020029A619A6904AEEF
:102A200002F020020292029A9A6942F004029A612C
:102A30009B69002203F004030393039BFDF726FD2B
:102A40004FF400530993022309A91D480A940C93DB
:102A50000B95FDF73BFC4FF4E1331A481A4A8560A9
:102A600080E80C000C23C560436105618561C56188
:102A7000FEF7A8F9154B0EA8214640F8383D2A4626
:102A8000FEF750FB124C134B18600FCC0FC654F8D6
:102A9000043B294604A83360FEF72BFB0E4B09AE1E
:102AA00018600FCC0FC62368294609A83360FEF7CB
:102AB00020FB0A4B1860FEF717FBFEE700100240F0
:102AC00000100140B02100200038014029290008F1
:102AD000A42D0008F0210020AC210020F4210020CA
:102AE000122202490248FEF7F7B900BF0800002091
:102AF000B02100200368B3F1804F01D1FDF73ABB4C
:102B000070470000114B07B59A690F2142F001028E
:102B10009A619A696FF0010002F001020092009A36
:102B2000DA6942F08052DA61DB69002203F08053F7
:102B30000193019BFDF742FB054A536823F0E063D4
:102B400043F08063536003B05DF804FB0010024063
:102B50000000014010B5044686B01022002102A8F2
:102B600000F003F922681B4B9A4230D103F5584319
:102B70009A6902A942F480429A619A69164802F45D
:102B800080420092009A9A69002442F004029A61FD
:102B90009B6903F004030193019B4FF400730293BC
:102BA0000223039303230593FDF790FB4FF4806307
:102BB00002A90948029303940494FDF787FB25209A
:102BC00022460521FDF7FAFA2520FDF72BFB06B07A
:102BD00010BD00BF003801400008014010B501469B
:102BE00088B000221C20FDF7E9FA1C20FDF71AFB33
:102BF000144B01A9DA6903A842F00102DA61DB692A
:102C0000114C03F001030293029BFDF7E3FEFDF775
:102C1000C1FE4FF08043236040F2E733E3600B4B8B
:102C2000B0FBF3F000230138606020462361A3600D
:102C3000FDF7D8FF20B92046FDF7EBFE08B010BD28
:102C40000120FBE700100240F821002040420F0065
:102C50007047FEE7FEE7FEE7FEE770470148FDF735
:102C6000E7BE00BFF82100200148FEF795B900BF7C
:102C7000B02100200F4B1A6842F001021A60596817
:102C80000D4A0A405A601A6822F0847222F4803297
:102C90001A601A6822F480221A605A6822F4FE022E
:102CA0005A604FF41F029A604FF00062034B9A6023
:102CB000704700BF001002400000FFF800ED00E088
:102CC000002103E00B4B5B58435004310A480B4B87
:102CD00042189A42F6D30A4A02E0002342F8043B23
:102CE000084B9A42F9D3FFF7C5FF00F00FF8FFF742
:102CF00077FE70470C2E0008000000202400002002
:102D00002400002038220020FEE7000070B50025D6
:102D10000C4E0D4CA41BA410A54209D100F02EF8B6
:102D200000250A4E0A4CA41BA410A54205D170BD73
:102D300056F8253098470135EEE756F82530984784
:102D40000135F2E7042E0008042E0008042E0008C6
:102D5000082E000810B5431E0A44914200D110BD50
:102D600011F8014B03F8014FF7E703460244934281
:102D700000D1704703F8011BF9E70000F8B500BF68
:102D8000F8BC08BC9E467047F8B500BFF8BC08BC4C
:042D90009E467047A4
:102D940002030405060708090A0B0C0D0E0F101098
:102DA400E42D0008352900080000000000000000A0
:102DB40080000000DE2D00085129000800000000FA
:102DC400000000008000000049444C4500546D722E
:102DD4005100546D7220537663007461736B32003A
:102DE4005461736B31000000000000000000010218
:102DF40003040607080900000000010203040000A0
:042E0400350100088C
:042E080011010008AC
:102E0C0001000000AAAAAAAA0D0A2055617274201A
:102E1C0052656164793A200D0A200000010000001F
:042E2C0000A24A04B2
:0400000508002CC102
:00000001FF
